:020000040800F2
:10000000482C0020A9010008579F0008CD9900083E
:10001000559F0008A177000805AB0008000000000C
:1000200000000000000000000000000037A20008EF
:1000300021820008000000002DA00008D5A20008C1
:10004000C3010008C3010008C3010008C301000880
:10005000C3010008C3010008C3010008C301000870
:10006000C3010008C3010008C3010008C301000860
:10007000C3010008C3010008C3010008C301000850
:10008000C3010008C3010008C3010008000000000C
:10009000000000000000000000000000C301000894
:1000A000C3010008C3010008C3010008C301000820
:1000B000D9A30008E5A30008C3010008C301000894
:1000C000C3010008C3010008C3010008C301000800
:1000D000C3010008C301000819A9000800000000BE
:1000E00023820008C3010008C301000800000000CB
:1000F000000000000000000000000000C301000834
:1001000000000000C3010008C3010008C30100088B
:1001100000000000000000000000000000000000DF
:10012000C3010008C3010008C3010008C30100089F
:10013000C3010008000000000000000000000000F3
:10014000000000000000000000000000C3010008E3
:10015000C3010008C3010008C3010008C30100086F
:10016000C3010008C30100080000000000000000F7
:10017000000000000000000000000000000000007F
:1001800000000000C30100080000000000000000A3
:10019000C3010008DFF80CD006F01AFC0048004745
:1001A00099B80008482C00200648804706480047B8
:1001B000FEE7FEE7FEE7FEE7FEE7FEE7FEE7FEE717
:1001C000FEE7FEE785A3000895010008FAA0704746
:1001D0000520704702207047042070470D207047AB
:1001E00010B5F8480068047A204602F0BEFE2046AA
:1001F00002F008FE10BDF4487047F3487047F2481B
:100200007047F148704770B5F04C0025657001F0FB
:10021000AAFA03F0C0FFEE48E061303020622038D7
:1002200060621030A062203004F079F8E8484C3069
:1002300004F07AF8E6485C3004F07CF86560A5606C
:10024000E5602561656100F037FD002802D000F00F
:1002500072FD01E000F036FD002000F001F870BDF5
:1002600010B5044601F026FD052C16D006DC002C46
:100270000AD0012C0BD0022C04D10BE0062C12D09A
:10028000632C0DD0042010BDFFF7AAFF10BDFFF7AF
:10029000B2FF10BDFFF7B1FF10BDFFF7B0FF10BDFB
:1002A000FFF7B1FF10BDFFF7ACFF10BD30B589B04F
:1002B0000024192501F0D8F9284602F0B6FD03F014
:1002C0006AFF284602F051FEFFF79DFF00F0F4FCA4
:1002D00000280DD11822BF4903A805F0BAFE0798DF
:1002E00008990090019103A80FC800F038FE044659
:1002F000204609B030BD10B5B44A0021517000F05D
:10030000EAFA002801D1FFF7D1FF10BDFEB506467D
:100310000024304603F0F4FF012833D000F072FBD4
:10032000AA4D697808432FD0E86900686860286A98
:100330000068A860686A0068E860A86A00682861C8
:1003400000F060FB00283CD001283AD00A2841D0B8
:1003500068686861032E0CD0A86AEA694189686AF6
:1003600052894089019000920291281D0FC803F024
:1003700043FF287800283AD02A6CE96BA86B01F07B
:1003800005FB39E09448FEBDE869017A4AB203C82A
:1003900004F081F86860286A017A4AB203C804F060
:1003A0007AF8A860686A017A4AB203C804F073F860
:1003B000E860A86A017A4AB203C804F06CF82861C0
:1003C000BEE7E869824A41894032686803F0B8FFB5
:1003D0006861BFE7FF20F5300090E8697C4A4189F9
:1003E0000A234C32686803F0DCFF6861B2E76A6B8D
:1003F000296BE86A01F084FB01F01EFF002810D190
:1004000003F060FF00280CD0E86908224189825E71
:1004100000920191296A42684B68A968686903F0F3
:100420007AF8694F052E3CD006DC33000AF0B2FBA7
:100430000522292B0D320C00062E39D0072E20D094
:10044000322E02D0632E3AD0634C032E3ED0322E91
:100450003CD002F0B5FB01F0B4FC01F0EDFE002849
:1004600034D002F036FD044602F01DFD214600F0B6
:10047000CFFCFEBD3246A968686902F002FD044661
:10048000E3E73C46E1E73246A968686902F0F9FC17
:100490003C46DAE73246A968686902F0F2FC3C465D
:1004A000D3E73246A968686902F0EBFC3C46CCE72A
:1004B0003246A968686902F0E4FC0446C5E73246A2
:1004C000A968686902F0DDFC0446BEE72046FEBD6F
:1004D000F8B5069F099E3D4C002525706570E062C9
:1004E000216362633A488573036046600D99018118
:1004F000119941810322014620318A7707630A9AC4
:1005000042630E9A0287458701228277079A026129
:100510000B9A42610F9A0283129A428302228A73D3
:10052000089A02620C9A4262109A0285139A4285D6
:10053000E0613030206220386062A1621498FFF7D9
:10054000E5FEF8BDF8B504460D4616461F4600F018
:1005500059FA002802D01C48F330F8BD1B48C46289
:1005600005634663C761069901620799416208996C
:100570008162002101700998FFF7C8FEF8BDF8B547
:1005800004460D4616461F4600F03CFA002802D0ED
:100590000D48F330F8BD0D488463C5630664C76138
:1005A00006990162079941620899816201210170EF
:1005B0000998FFF7ABFEF8BD4E617574696C7573F1
:1005C00000000000F0BC00080E6C00002C010020B0
:1005D000C0120020D8BC00080E6B0000F8B504461D
:1005E0000E4617461D4600F00DFA012801D09B4823
:1005F000E1E70120C0032118994CE1623118216321
:1006000038186063E1690D600020887308814860D4
:10061000099A4A81216A069A0A6003228A7308812C
:1006200048604881616A079A0A6001228A730881DA
:1006300048600A9A4A81A16A089A0A6002228A736B
:10064000088148600B9A4A8120700D98FFF75EFE82
:10065000B1E7F8B504460E4617461D4600F0D2F93C
:10066000012801D07D48A6E77D4A9463D6631764CC
:10067000D1690D600020887308814860099B4B8117
:10068000116A069B0B6003238B73088148604881C5
:10069000516A079B0B6001238B73088148600A9C99
:1006A0004C81916A089C0C6002248C73088148601C
:1006B0000B98488113700D98FFF728FE7BE7817B2C
:1006C000674A002907D0012907D0022907D003294A
:1006D00000D110627047D0617047506270479062DD
:1006E0007047FFB581B006460F461C460A9D00F0D4
:1006F00089F90A2802D0594805B0F0BD5848C662A9
:10070000076303994163002020812881217B01290F
:1007100003D9206805F006FC00E020682060297BF2
:10072000012903D9286805F0FDFB00E0286828604E
:100730002046FFF7C4FF2846FFF7C1FF0B98FFF7DD
:10074000E5FDD9E77CB5079D069C0126F6038019D7
:100750008919921901950094FFF7C3FF7CBDFFB57D
:1007600081B006460F461C460A9D00F04BF90A2848
:1007700001D03A48C0E73A48012101708663C76357
:1007800003990164002020812881217B012903D95C
:10079000206805F0C7FB00E020682060297B012964
:1007A00003D9286805F0BEFB00E0286828602046D1
:1007B000FFF785FF2846FFF782FF0B98FFF7A6FD9E
:1007C0009AE7F8B5079F069D064625480124447020
:1007D00004708663C16302641846FFF770FF284601
:1007E000FFF76DFF3846FFF76AFF0898FFF767FFCE
:1007F0000998FFF78BFDDEE610B5002419490028A3
:100800000BD0012804D0022804D0032805D103E02E
:10081000154902E0154900E015491148806940007A
:10082000400805F0D5FF00D80124204610BD002067
:10083000E2E70B48C06A70470948006B70470848F8
:10084000406B7047064840687047054880687047AD
:100850000348C0687047024800697047016D000096
:100860002C0100200AD7A33B0AD7233BA69BC43AFE
:1008700017B7D13810B500219B4C002806D07D2237
:10088000D200022805D0012805D005E00020A08074
:100890000AE0A28008E01046FF220146934BF532A1
:1008A000201D03F057FE0146084610BD10B5014655
:1008B00000208D4C002907D0022908D08C4B002243
:1008C000A01D03F047FE10BD0021E18010BD7D2179
:1008D000C900E18010BD10B50446204605F04FFE6A
:1008E00003F017FE002803D07F480472002010BDDB
:1008F000012010BD10B50446204603F021FE00285B
:1009000003D079484472002010BD012010BD10B5FD
:10091000754800221146401C03F029FE10BD10B599
:10092000714800221146801C03F021FE10BD6E4963
:10093000C87000207047002805D0012803D00A287D
:1009400001D001207047684988720020704710B5B7
:100950000021A12812D008DC00280FD020280DD0BB
:1009600050280BD0602806D108E0B02806D0B12866
:1009700004D0B32802D0012802D003E0012101E015
:100980000121B020002917D05749087050280BD0FA
:10099000A1280FD0B12809D0B32809D01420C0B2A3
:1009A00001F0CBFA002010BD3220F8E71E20F6E758
:1009B0003220F4E71420F2E70C2010BD4A4880886A
:1009C00070474948C08870474748007A7047464892
:1009D000407A70474448007D70474348807D7047A7
:1009E0004148407D70474048C07D70473E48007890
:1009F00070473D48407870473B48807870473A4898
:100A0000C07870473848807A704770B500243648FF
:100A1000001F007800285BD07D20000100F06EF8F8
:100A2000002800D00124334800F087F8002800D0C7
:100A300001247D25ED002846FFF71CFF002800D08B
:100A400001242846FFF732FF002800D001240020AF
:100A5000FFF75DFF002800D001240020FFF75FFFB3
:100A6000002800D001240120FFF761FF002800D0FA
:100A7000012400F038FE002800D00124F021462097
:100A800000F026FE002800D00124002000F052FED5
:100A9000002800D0012400F0AAF8002800D001248A
:100AA0000020FFF748FF002800D001240020FFF7B6
:100AB0004EFF002800D001241920FFF70CFF00286A
:100AC00000D001240820FFF715FF002800D00124E2
:100AD00005493C20C86008480861142008758875DD
:100AE0004875C875204670BD7801002010270000A9
:100AF00050C30000B80B00009A99193F10B50021AF
:100B0000664A002812D07D2424010123022811D036
:100B1000D370A210904200D2204601465F48604B3D
:100B2000083003F017FD0146084610BD0020D070C4
:100B30001081F9E7D3701481F6E710B50346002061
:100B4000564C002B0DD057490122022B0DD022719B
:100B5000FF22F532934203D2514BA01D03F0FAFC61
:100B600010BD00212171E18010BD2271E18010BD16
:100B700010B501460022494803F0F9FC10BD0028D9
:100B800003D0012801D0022807D1444A507000291F
:100B900005D0012903D0022901D0012070479170AE
:100BA000002070473D49C860002070470246002081
:100BB0008A4203D2394B1A6159617047012070474C
:100BC000024600208A4203D2344B9A61D9617047B1
:100BD00001207047002805D0012803D0022801D049
:100BE000012070472D49203108710020704710B551
:100BF00000240020FFF7BCFF002800D001240221C0
:100C00000846FFF7BCFF002800D001242648FFF764
:100C1000C9FF002800D0012424492548FFF7C6FF5A
:100C2000002800D00124FF202249F530FFF7C8FF3B
:100C3000002807D001201922184952010A840122F4
:100C40004A8410BD2046F6E71448C078012800D039
:100C50000020704711480079012800D0002070471B
:100C60000E48008970470D48C08870470B480078CF
:100C700070470A48407870470848807870470748AE
:100C8000C06870470548006970470448406970476C
:100C90000248806970470148C06970479001002090
:100CA00010270000B80B000080969800701101001A
:100CB000581B0000801A0600F7480078012800D071
:100CC0000020704710B5F44B00201870F3490860FD
:100CD00048608860086148618861C861486208624C
:100CE00008738862C86200240C634C6388630C64D8
:100CF0004C64886400220A654A65E94A8A650C6684
:100D00004C6688660A466032107300220A674A679A
:100D1000E44A1070507090709080D08010815081A3
:100D200010738867C8678031086048605870D87051
:100D30001871D88010BD00B5B9B0D849E022E031B3
:100D4000684605F086F9FFF7BDFFD349012008701A
:100D500039B000BD10B56E22002103F0C9FA002899
:100D600001D0D14810BD002010BD10B5CF4A64217C
:100D700003F0BEFA002801D0CD4810BD002010BD00
:100D800010B57D21CB4A090103F0B2FA002801D049
:100D9000C94810BD002010BD10B5F0220F2103F08E
:100DA000A7FA002801D0C54810BD002010BD10B51D
:100DB000F0220F2103F09CFA002801D0C04810BD9A
:100DC000002010BD10B5BF4A002103F091FA0028A1
:100DD00001D0BD4810BD002010BD10B56422002117
:100DE00003F086FA002801D0B84810BD002010BDDD
:100DF000012805D0022803D0032801D0B448704749
:100E00000020704702460020A64B5A7019737047A5
:100E100030B40024A34A507011739F4D2A78002AE1
:100E200006D06B785B1CDBB26B70012A04D00BE040
:100E3000A748FC3830BC7047AA78934204D10022FE
:100E40006A7030BCC9B2DDE72046F3E710B5024650
:100E50000846130009F09EFE0805080B0E11141732
:100E60001A1EFFF777FF10BDFFF77FFF10BDFFF7DA
:100E700087FF10BDFFF790FF10BDFFF798FF10BD73
:100E8000FFF7A0FF10BDFFF7A8FF10BDC0B2FFF72E
:100E9000AFFF10BDEE2010BD0FB410B58D48069900
:100EA00005F092F904468C48059905F055F98B49EF
:100EB00005F058F98A4905F087F9214605F0FAF856
:100EC00005F0AFFB10BC08BC80B204B0184710B5E9
:100ED0000446084605F053FB824905F075F92146A2
:100EE00005F040F9804905F06FF910BD0FB41CB54D
:100EF00007987E4940004008884211DA76490898F0
:100F000005F030F905F074FB014608A8037968463E
:100F1000428A642042436846008A02F0F9FB079047
:100F2000089809990090019104A80FC8FFF7B4FF31
:100F30006946CA8A4101081A69465043898A05F000
:100F400007F880B200230722194600F03FFB81B268
:100F50000898FFF7BCFF1CBC08BC04B018470FB4CE
:100F6000F0B58BB010A807885B49149805F0FAF823
:100F700005F057FB80B20A9010A8408864214843CE
:100F800080B2099010A8067D8488C58840890890A1
:100F9000139805F046FB80B207903F4819218170F5
:100FA000002141700170002D09D1F800C01BC1174C
:100FB0000A22002300F00AFBD021081A85B2002C77
:100FC00002D1012E38D04B2439460020FFF73EFFD6
:100FD00000282CD101200A99FFF738FF002826D1DC
:100FE00002200999FFF732FF002820D12146032073
:100FF000FFF72CFF00281AD129460420FFF726FF0F
:10100000002814D105200899FFF720FF00280ED1F1
:1010100006200799FFF71AFF002808D1314607205C
:10102000FFF714FF06900698002807D006980BB02B
:10103000F0BC08BC04B018474824C5E72A460F2175
:10104000204603F055F9012852D0F022611C2846B1
:1010500003F04EF901284DD00F48012101700F48CF
:10106000E03007600A994160099981600673046164
:101070004561089941620799C161089907980096EE
:10108000049502910390019439460448099B0A9AF9
:1010900002F033FC0698CAE7B801002030130020A4
:1010A0008FC2D53FF01400200E330000DCFF00009B
:1010B0000E340000A86100000E3500000E3600005E
:1010C0000E370000DC0500000E3900000E3A00006B
:1010D0000E3C0000000087450000C84200808E449E
:1010E0000040164400007A440000704295BFD63399
:1010F0008C489CE78B489AE7F8B506460D468A4827
:101100000078012801D00020F8BD884C204607C88F
:10111000237B02F0FDFA864905F024F8009028466A
:1011200005F02DFA834905F01DF8834905F04CF8C8
:101130000546304605F023FA804905F013F80646C7
:10114000606905F013FA7E4905F00CF8074620693E
:1011500005F00CFA7B4905F005F87B4904F0AAFF7D
:10116000394604F0A7FF314604F0F6FF294604F0A3
:10117000A1FF009904F0F0FF0546606805F0F6F95C
:10118000724C214605F020F8294604F0EBFF704927
:1011900005F01AF8214604F0E5FF05F042FA80B2A6
:1011A000F8BDA9E770B506465F4CE0781E2801D36C
:1011B000012000E00020002805D001F0A5FE1E2837
:1011C00001DD012000E000200025002810D0E1789A
:1011D000E08804F0A7FE05F0FEF900225D4B05F063
:1011E0003DF805F072FAC0B22571E570E58070BD7A
:1011F000207900280DD0811D8E4213D8801F864291
:1012000010DBE078401CE070E0888019E08000206E
:1012100070BD2671E078401CE070E0888019E080A5
:10122000002070BD2571E570E580002070BDB9E734
:101230003E48E030007870473C48E03040787047E6
:101240003A48E030808870473848E030C0887047BE
:101250003648E030008970473448E03040897047B4
:101260003248E030007B70473048E038007D7047FE
:101270002E48E030407870472C48E0308088704736
:101280002A48E030C08870472848E030008970471D
:101290002648E030408970472448E030007B7047A2
:1012A0002248E038007D70472049E03148816421C0
:1012B00048431E49E03988640020704770B50546F0
:1012C0000024002018490978002911D0174E3069F0
:1012D00005F04CF90446306805F06CF91E4A1F4BC6
:1012E00005F063F800221E4B05F05CF805F04AFAA1
:1012F000214604F031FF06462146284604F02CFF23
:10130000314604F061FF0121C905884200DA00205E
:1013100070BD00B5FFF77CFD00BD00B5FFF7D2FC46
:1013200000BDC1E70C380000B801002010140020F7
:101330005C8F023FBA49FC3F0000204196438B3D41
:10134000C3F5283E6DE77BBEA4F002420000C84210
:1013500000007A440000E03F666666666666E63F27
:1013600000806B40FFB581B006461746002406E0BA
:10137000A5007059029904F09DFE7851641C0498F0
:101380008442F5D305B0F0BD30B5002305E09C00E4
:1013900005596D006D080D515B1C9342F7D330BDAC
:1013A000FFB581B006460F46002407E0A500795935
:1013B000705904F0D7FE03994851641C0498844284
:1013C000F4D3DFE7F8B505460E461446002020604A
:1013D000002E0FD00022014605E09300EB58DF17E6
:1013E00018187941521CB242F7D33246002304F058
:1013F000C3FD2060F8BDF7B50E46174600203860E3
:10140000002E14D00024002507E00098A1004158C8
:10141000284604F04FFE0546641CB442F5D330461E
:1014200005F0ADF80146284604F0CEFE3860FEBD5A
:10143000FFB581B006461746306838600498002131
:10144000016001240AE0A5007059396805F0C0F96F
:1014500003D27059386004980460641C0298844276
:10146000F1D38FE7F7B582B00E460024002501AA1C
:1014700031460298FFF7A6FF13E0019805F076F8D1
:1014800007460298A100405805F070F8394604F06C
:1014900063FE014604F066FE294604F00BFE054695
:1014A000641CB442E9D3304605F069F80146284689
:1014B00004F08AFE0AF01CFB05F09AF80499086013
:1014C00060E7FFB581B000242546049A002313602D
:1014D00006460F4603988008009034E0396830686B
:1014E00004F040FE05F00AF922462B4604F0B6FE51
:1014F00004460D467968706804F034FE05F0FEF885
:1015000022462B4604F0AAFE04460D46B968B06890
:1015100004F028FE05F0F2F822462B4604F09EFE69
:1015200004460D46F968F0681037103604F01AFECC
:1015300005F0E4F822462B4604F090FE04460D46E2
:101540000098401E009000980028C7D1039880079B
:10155000800F00900EE002CF01CE04F003FE05F0F4
:10156000CDF822462B4604F079FE04460D4600983D
:10157000401E009000980028EDD12046294605F035
:1015800001F904990860FDE6F8B504460E461746D1
:101590000020B5080DE0216804F08CFD616804F0BE
:1015A00089FDA16804F086FDE168103404F082FD35
:1015B0006D1E002DEFD1B507AD0F03E002CC04F096
:1015C00079FD6D1E002DF9D13860F8BDF0B51FB45E
:1015D00082B0059B049A1A4303D0002904DA01253E
:1015E00003E0002007B0F0BD0025EE172A46324385
:1015F00003D00A46002140429141059B049A04F021
:10160000BBFC174604460193022200230599049867
:1016100004F0B2FC019BC01B994100DA641C354305
:1016200000D064422046DDE7F8B507460D46164671
:101630001A4C3846216888472860616838468847D0
:101640003060F8BD70B506460C46154630460AF0C7
:1016500047FA206030460AF074F8286070BD7F2198
:10166000C9054018400870470C480D4941620D49B2
:1016700001620D49C1610D4901610D4981610D4949
:10168000C1620D4981620D4941610D4901600D49F9
:1016900041600D4981600D49C1607047C001002063
:1016A00089150008651400086513000889130008EF
:1016B000A1130008F713000831140008C314000830
:1016C000E1BA000843B70008F1BA0008291600087B
:1016D0001E4A10705170002070471C4800787047F7
:1016E0001A484078704700B595B05022184901A8B3
:1016F00004F0AFFC1548502201A9001D04F0A9FC1C
:10170000002015B000BD1FB5069810490001401813
:1017100069461EC9001D1EC0002004B010BD10B5D2
:101720000A4A090189180A1D1CCA09691CC00C381B
:10173000C16010BD10B5014604480022543002F0CB
:1017400016FF10BD01484030007D7047F0010020B9
:10175000FCBC0008FE48806D7047FD48C06D7047B6
:10176000FC480068704770B5BAB0FB4D00242C707F
:10177000F7481C308464C464046544658465C465AA
:10178000046644668466C46604674467846780218F
:10179000C4670C50803044608460C46001462846B1
:1017A0000D223431103004F0C5F928460D22EB49E2
:1017B000183004F0BFF9E94928460D2234312030B1
:1017C00004F0B8F9E548683003F065F8E44803F040
:1017D00062F8E44803F05FF8E34EE04831465838D9
:1017E00003F0BEF8DD4831464C3803F0B9F8DB4869
:1017F0003146403803F0B4F8E42101A804F042FC7B
:10180000E422DA4901A804F024FCD148E42201A929
:10181000803804F01EFCD6480460CE4804606C603A
:10182000AC60EC603AB070BDF8B5C94CCA48803CB9
:101830001030616804F08CF9C748E16C183004F08E
:1018400087F9C54880342030616904F081F9C249C4
:101850000878401CC0B20870042828D30020087003
:101860000846103002F0B9FF0746BB48183002F0B6
:10187000B4FF0646B848203002F0AFFF0546B7492E
:101880003846683103F01DF80746B549304603F085
:1018900018F80646B349284603F013F805463146C2
:1018A000384604F007FC294604F004FC2066F8BD25
:1018B000FEB5B04800680078FF2855D1A44D803DA2
:1018C0006C696E682146304604F046FCA64904F077
:1018D00049FC214604F0EEFB6861EC6DE86C2146A2
:1018E00004F03AFCA04904F03DFC214604F0E2FB80
:1018F000E865974C676A6069394604F02DFC9A499F
:1019000004F030FC394604F0D5FB60621927234609
:101910007F01AC333A460121304603F026F80190AE
:101920002346B8333A460121E86C03F01EF80090D4
:101930002346C4333A460121606903F016F806468F
:10194000019800F0A5F9A861009800F0A1F92866B7
:10195000304600F09DF9A0620099019804F0AAFBBE
:10196000314604F0A7FBE06582480068007A192838
:1019700004D0322801D1FFF757FFFEBD0024FFF746
:1019800053FF641CE4B2022CF9D3FEBDF7B582B05C
:101990000646714CA168606804F010FF01D1012077
:1019A00000E0002004F0EBFDE16804F007FF05D142
:1019B00066600398A0600498E06024E061683046A7
:1019C0000F4604F0C9FB6C4D294604F0CBFB3946A9
:1019D00004F070FB6060A16803980F4604F0BCFB44
:1019E000294604F0BFFB394604F064FBA060E168BF
:1019F00004980F4604F0B0FB294604F0B3FB3946C7
:101A000004F058FBE0603046616804F0A5FB534ADF
:101A10005A4D7C3A2B4611460C3B2439009502F076
:101A20004AFE574F394604F09DFB494E803E706098
:101A3000A168039804F090FB484A2B46703A11467F
:101A40000C3B2439009502F036FE394604F08AFB3F
:101A5000F064E168049804F07FFB404A2B46643A46
:101A600011460C3B2439009502F025FE394604F05E
:101A700079FB374D07467068616804F01BFB7060A6
:101A8000F06CA16804F016FBF0643846E16804F0DD
:101A900011FB6861FFF70CFF354CA86D2060686989
:101AA00000F0F6F80746F06C00F0F2F8019070686C
:101AB00000F0EEF8019904F0FDFA394604F0FAFA64
:101AC0000AF016F8A96D4A002E4952088A4205DA32
:101AD0002268520052088A4200DA2060A865216814
:101AE00004F03AFB1B4C21680D4604F035FB2249FB
:101AF00004F038FB294604F0DDFA206005B0F0BDA3
:101B0000FEB504461B4809230068C3561E48241826
:101B10000F181518184604F029FD064601902046B6
:101B200004F024FD0F21C94304F08CFB012104F0D3
:101B300089FB314604F016FB054E0446803E70607A
:101B400001980090384604F011FD0F21C9431DE0B3
:101B5000641600204401002048020020681700207D
:101B6000D0180020D01900200AD7233C00150020EF
:101B700070010020F0BC0008CDCC4C3D58BD0008E1
:101B8000BE55F03D95BFD6330180FFFF04F05AFBF0
:101B9000012104F057FB009904F0E4FAF0640646D2
:101BA0002846019F04F0E2FC0F21C94304F04AFBE0
:101BB000012104F047FB394604F0D4FA3749486163
:101BC000024631462046FFF7E1FEFEBDF8B50C4661
:101BD00015461E466168A1602168616020606968E1
:101BE000A9602F686F60B06804F0BCFA00903946B5
:101BF000706804F0B7FA0646A168206804F0ACFAF1
:101C0000314604F0A9FA009904F0A6FA2860069972
:101C100004F0A8FAF8BDF8B50C461546204E214B45
:101C20002A4621460096FFF7D1FF1E4B2A46214641
:101C30000C330C320C310096FFF7C8FF1A49194BD0
:101C400000912A462146183318321831FFF7BEFF9B
:101C5000F8BDF8B50C461546124B144E24332A46EF
:101C600021460096FFF7B2FF0E4B2A46214630333D
:101C70000C320C310096FFF7A9FF0D49094B00917A
:101C80002A4621463C3318321831FFF79FFFF8BD32
:101C900010B5014604F066FA10BD0000641600207D
:101CA000CA7D793D64BD0008F471723DB212F23D07
:101CB00045B4E53D5A4900204870704770B5064666
:101CC000002457480C304568A000285804F090FCC8
:101CD00000B2801B801C042801D9002070BD641C48
:101CE0000D2CF1DB012070BD704770B54C4C002508
:101CF000E0780126002814D001281ED002280FD138
:101D00006068401C60600220FFF7EEFF60682628D4
:101D100021DA6920FFF7D2FF002801D00320E0700C
:101D200070BD0020FFF7E0FF2F20FFF7C7FF00285E
:101D300001D0E67070BDE57070BD0120FFF7D4FFE3
:101D400065602F20FFF7BAFF002801D0E67070BD54
:101D50000220E07070BDE570656070BD10B50023B5
:101D60002F4AFF2807D09168491C9160D478032C32
:101D700004D0936010BD9360002010BD90784400A3
:101D80008C4201D3682010BD84008C4201D32D20E9
:101D900010BD062444438C4201D32A2010BDC40048
:101DA0008C4201D32C2010BD0A2444438C4201D321
:101DB000FF2010BDC4000019884200D293600020AB
:101DC00010BD70B506461748154C0068007AA07023
:101DD00060780025002810D13421134804F052F90E
:101DE00020460D2210490C3003F0A4FEE57025704A
:101DF000FF20FFF7B3FF012060702078401CC0B2C5
:101E00002070A17888420AD32570304604F0B7FBD1
:101E1000014603480C3003F09BFEFFF766FF70BDE0
:101E200070020020F0BC0008D01A002000210160E0
:101E30004160C1600161D449096881607047F0B5B3
:101E400085B007460C463846216804F085F90490B1
:101E5000606804F053FC054600900E46019104981A
:101E600004F04CFC49004908019B009A04F097FAE1
:101E700003910290A06804F041FC039B029A04F0D5
:101E800094FA2A46334604F0E9F904F07BFC6060DA
:101E90000121C905884209DB0146BC4804F094F9D8
:101EA000E0600146049804F05DF90490B849E068E8
:101EB00004F08AF97F25ED052A46002100F04EF94D
:101EC000294604F04CF9B34904F04CF9B24904F046
:101ED000F1F80246280211464140049800F03EF90C
:101EE00005462169E06804F037F9A749496804F01C
:101EF0006BF9A16804F0DEF8A0603F221206A74942
:101F000000F02CF9A060E06820612760284605B049
:101F1000F0BD70B50546084614461E462146FFF73B
:101F20008EFF02469E49E068884204DA2946304620
:101F300003F0EDFB0546284670BD10B5044621466A
:101F4000984803F0DDFB2146974803F0D9FB214672
:101F5000964803F0D5FB002010BD8B49896841608D
:101F60000021016000207047F3B581B0029800683D
:101F700004F0C4FB044606460D460F46019804F0E3
:101F8000BDFB4900490832463B4604F008FA0646C4
:101F900002980F46406804F0B1FB32463B4604F01D
:101FA00004FA22462B4604F059F904F0EBFB02999F
:101FB00008600121C905884207DB01467C4804F01E
:101FC00003F9019904F0CEF801907A4A7A49019810
:101FD00000F0C4F8FEBD10B56B480C30FFF7BDFF34
:101FE00069481430FFF7B9FF67481C30FFF7B5FFA9
:101FF0006C483C38FFF71AFF6A482838FFF716FF8D
:1020000068481438FFF712FF2C216C4804F03AF8A6
:102010006A482C212C3004F035F868482C215830BF
:1020200004F030F858480B226449243003F082FD54
:10203000624955480B222C312C3003F07BFD5F495F
:1020400051480B225831343003F074FD554803F0E9
:1020500052FB554803F04FFB544803F04CFB4A48F1
:10206000574901605749416057498160574908689D
:10207000007850280BD0A12815D0B1280BD0B32858
:102080000DD01420C0B2FFF758FF002010BD096822
:1020900014200856F6E7096816200856F2E7096882
:1020A00015200856EEE7096817200856EAE770B5CC
:1020B0000D46144601463448243003F049FD3248A9
:1020C00029462C3003F044FD2F482146343003F0DC
:1020D0003FFD002070BD70B504463D4E8125ED05E5
:1020E0002846B16804F06AFB2846316D04F066FBAF
:1020F00038488169284604F061FB37492046FFF7DC
:1021000033FF04463448183002F06BFB254B014680
:102110001A463C3A2046FFF7FCFE2F490831FFF7EC
:1021200023FF04462C48203002F05BFB1D4A014689
:102130001D4B283A2046FFF7ECFE27491031FFF7E8
:1021400013FF04462448283002F04BFB154A014691
:10215000164B143A2046FFF7DCFE70BD70B50646FC
:102160000C4615462146304604F032FB01D230467B
:1021700000E0204604462946204604F01FFB01D219
:10218000204670BD284670BD840200200000FA433E
:102190000000704100A00C4500803B446F12833A60
:1021A00000008C42401B0020E41C0020881E002000
:1021B00000409C450050C3460050C3C62C20002060
:1021C000CDCCCC3D00007A44CDCC4C3DF0BC0008D9
:1021D000E4150020641600209002002070B504462B
:1021E000FF4D01237F219B072A46C905204602F0A7
:1021F000A9FFFC4E20462A463146603003F000FA23
:1022000020462A463146843003F0FAF92046A830A9
:1022100002F0F1FE70BD30B50022002593005C187D
:10222000E469C450CC581B18DC619D635D65521C89
:10223000D2B2072AF2D330BDEB480621415E002915
:1022400001DC0120704700207047F8B5FFF7F4FF6C
:10225000002817D1E44DE64EE96AE4484A003446C6
:1022600052088034002782420DDB8307DC4A304667
:1022700002F068FFE86AE0622879002801D0DD48B2
:10228000F063EF80F8BDDC480068C0780028F9D022
:1022900001F023FA04F09FF90022D84B04F0F7F87C
:1022A00004F070FAE8624100D0484908814212DB2C
:1022B00002F0AAF900280ED101239B07C84ACC4896
:1022C000E96A02F03FFFE86AE0622879002801D05D
:1022D000C848F063EF80EF62F8BD10B50146C24810
:1022E000383003F035FCC048383002F082FA10BDB7
:1022F000F1B5C34FC3484169384603F033FFC14CC1
:102300000546803C3846E16C03F02CFF0646384613
:10231000616803F027FF2A463146FFF7C8FE0098A0
:10232000FFF7D9FEF8BDF1B582B002F0BCFE019016
:10233000B549019803F016FFB44C214603F00FFF96
:10234000B34900F007FD214600F010FDB149886156
:10235000A9480068407800280FD003F0DBFB064650
:1023600003F0DCFB282801D9012700E0002714280E
:1023700001D9012013E0002011E003F0B7FB06466D
:1023800003F0B1FBA449884201DD012700E00027EA
:102390003F210906884201DD012000E000200028DD
:1023A00001D0304600E000208F4C60629B493046EF
:1023B00000F0D0FC0146974A029803F033F9054635
:1023C0008D4800680078FF2809D002F01DF93842D6
:1023D00003D193490198884208DD012007E0914824
:1023E00000680078002802D0012000E000200028CA
:1023F00015D0FFF721FF002800D002950C20205EA9
:10240000002808DD616B794A49004908914202DAE7
:10241000401EA08100E0666300F0BBFC0AE00021E2
:102420000A20205E002802DD401E608100E061631A
:1024300000F0BCFC0298FEBD10B502F034FE7749F6
:1024400088420FDA03F06AFB28280BD203F064FB02
:1024500001218907884205DA03F062FB462801D989
:10246000012010BD002010BDF8B50C4606214A1E03
:1024700093001B1989009B6B09198B6311B200290A
:10248000F5DCA063216803F06DFE60650125A800FE
:1024900021580619B06B03F065FE616D03F00AFE6A
:1024A00007466065F169706D03F05CFE394603F024
:1024B00056FE60656D1C2DB2072DE8DB0620411E1F
:1024C0008A0012198000526D0019426508B2002876
:1024D000F5DC606DF8BD10B50446FFF7ADFF0028D0
:1024E0000AD1454800680078202805D049499C3128
:1024F0002046FFF7B9FF10BD4B49F9E710B53C493D
:1025000002F082FE10BDF8B502F0D0FDFFF794FE98
:10251000354D01462879014035480446A834002944
:1025200013D03C4906466C31CA6AC16C204602F0A1
:1025300092FD28632A4903F047FE3C4903F012FE4E
:102540003B4903F009FEB06321E0C66C2E632A48C4
:102550000068C08800281AD004F03DF802460B46F7
:102560000020344903F093FF0022334B03F08FFF28
:102570000022224B03F08BFF04F004F902460020F6
:10258000034600903146204602F0BEFB2863286BCC
:10259000E861F8BDF8B515461C4604F0F3F80646A8
:1025A0002246294603F03EF83046014603F0DAFDA4
:1025B000666A314603F0D0FD204D294603F0D2FD76
:1025C000314603F077FD06466062E068014603F09D
:1025D000C9FDA76A394603F0BFFD294630E0000077
:1025E0000000C8419A99593FC002002095BFD633D8
:1025F000B020002000004040F0BC000800004E4029
:1026000000504345641600208FC2F53D48E17A3FF3
:10261000CDCC4C3F702400209A99193FCDCCCC3DB5
:10262000CDCC4C3D24BF00087C250020DB0FC940E9
:10263000DB0FC93F0000F03F000024406F12033B56
:1026400003F090FD394603F035FD0546A0627F2773
:10265000FF053946304603F02DFD0146284603F0BC
:10266000B3FD394600F082FB394603F078FDE062A5
:10267000FE498862F8BDF8B503F052FA044603F04B
:102680004BFA0546F949FA4A486A0090904201DA45
:10269000012700E00027322C05D9F64A886A9042CB
:1026A00001DA012400E00024F048C169284603F063
:1026B00053FD41003F2049080006814201DD01260B
:1026C00000E000262846009903F046FD41003F2027
:1026D0004908000681420CDD0121009803F0B2FD9B
:1026E000294603F03CFD41003F2049080006814295
:1026F00001DC002F01D0012000E000202146DE4F48
:1027000031403C460140803400290ED001239B0714
:10271000DA4A2946384602F015FDE562D3480079C9
:10272000002801D0D648F863F8BDFFF785FE304297
:10273000FAD001239B07D14A2946CF4802F002FD77
:10274000E562CA4800790028EED0CD48F863F8BDAC
:1027500030B5B7B0CB4C22685278002A03D122683A
:102760009278002A13D0C14AC74B926A9A4200DC81
:10277000084603F03DFF0546D822C449684603F0E9
:1027800068FCC24928460C390EC903F0C2F920681A
:102790004078002803D1B848FC3003F0F4F82068F2
:1027A0008078002801D0FFF766FF37B030BD00B554
:1027B000FFF742FD00280CD1AC49C888401E00B28A
:1027C000C880002805D10879002802D0AA49AC4861
:1027D000C86300BDF0B51FB404460D46174601217D
:1027E000384603F02FFD06462046294603F0CAFF6F
:1027F0003146039A02F016FF03F080FF04460D46AF
:102800009F49384603F0AEFC06462046294603F0B1
:10281000B9FF31460A9A02F005FF03F06FFF044644
:102820000D462046294603F0ADFF05B0F0BDF3B5D7
:1028300081B00C4601980168406803F08DFC03F0FC
:102840005DFF4900490803F09DFF214603F08AFC23
:1028500001998C68214603F07FFC8D4903F082FCCE
:10286000214603F027FC019988600198006903F074
:1028700045FF0446064601980D460F46406B03F09F
:102880003DFF4900490832463B4603F088FD814A36
:10289000814B03F08AFD22462B4603F0DFFC03F058
:1028A00071FF01990861FEBDF1B584B0049E1C362C
:1028B00004980168406803F04FFCB16A89007050C9
:1028C000B76AB900039103F019FF744A744B03F01F
:1028D0006CFD04460D46012000907F1E7FB22DE066
:1028E000002F00DA0427B8000290305803F006FFEA
:1028F000009A6C4BD2009B1801920CCB03F055FD53
:1029000022462B4603F0AAFC04460D460298801985
:10291000406903F0F3FE634B019A28339B180CCBFC
:1029200003F043FD22462B4603F03CFD04460D46D2
:102930000098401C40B200907F1E7FB2009805288E
:10294000CEDB2046294603F01DFF03998919486113
:10295000B16A491CB162052901DB0021B162049909
:10296000C86062E7F8B54948404A0C381378044615
:1029700080344168002B04D00160C36C83646369B8
:102980002361002313700546474803F0E1F84648E9
:10299000E96CEC3003F0DCF84448616903F0D8F8E6
:1029A0008B26F605394831460C38FFF740FF37488B
:1029B00031463C300746FFF73AFF34483146843011
:1029C0000646FFF734FF2F4800684078002809D0FA
:1029D0002E480C38FFF768FF3846FFF765FF304692
:1029E000FFF762FF68682860E86CA864606920618E
:1029F000F8BDF8B500241D4D01212970E8700026AE
:102A00002E81FA2119280CD0322808D081004018D4
:102A1000E8801C4F38684078002808D103E0E9803E
:102A2000F7E7E980F5E738688078002801D003F0FF
:102A30006FF8144800684078002801D102F09AFF2E
:102A40000A4D2E616E61AE610B48803006674667A5
:102A500086670146284603227031383003F06AF851
:102A6000EE61EE620448FFF7B9FB21E0C0020020EE
:102A7000CDCCCC3D9A99993EB02000200000C841B1
:102A800000004040F0BC0008CDCCCC3EF01500204A
:102A90000AD7A33BFCA9F1D24D62503F614BFECD5A
:102AA0000804033F20BE0008B82100209023002026
:102AB0002E63C54AC549C64802F0A2FDC448C24AB1
:102AC000C249243002F09CFD6E6300F062F900F010
:102AD0006DF9BF48BC4ABF49243802F091FDBC4F94
:102AE0004837FE62B84AB949384602F089FD7E622D
:102AF000BE62AE623846B8493030FFF78CFBB6494B
:102B000038463831A030FFF786FB28464030FFF7C3
:102B100024FA6E70AE702E626E626E81AE81EC2011
:102B200021464143AD480818074614300546C421E4
:102B300003F0A8FA384629460C30312202F0FAFF99
:102B4000384601F081FE384680308665C6650666E7
:102B500046668666641CE4B2032CE0D3A048006895
:102B60000078002805D0B02803D0B32801D0012078
:102B700000E000209B490871FFF72DFAF8BD10B561
:102B8000FF22002100F0FEF803F0F0FC964903F06C
:102B90001BFB9449C86210BD10B5FFF74DFB002820
:102BA0000BD090489049C06903F0DCFA03F020FD97
:102BB000FF22002100F0E6F800E00020C0B210BDC6
:102BC00010B5FFF739FB00280BD086488649C0694D
:102BD00003F0C8FA03F00CFDFF22002100F0D2F848
:102BE00000E00020C0B210BD10B5FFF725FB0028A3
:102BF0000BD07C487C49406B03F0B4FA03F0F8FC3E
:102C0000FF22002100F0BEF800E00020C0B210BD9D
:102C100010B574487549806A03F0A4FA03F001FD09
:102C2000C0B210BDFEB505466D48006801780029A8
:102C300005D0B02903D0B32901D0012000E0002045
:102C4000684C2071FFF701FB6078401CC0B26070D7
:102C5000022865D100206070284603F087FCFFF74A
:102C60003CFB0546264614362846316803F074FAC4
:102C700035602061FFF73CFB2061FFF754FB2061CA
:102C800021464031FFF770F92061FFF724FC0190E5
:102C9000019803F033FD514A504B783A0092843A40
:102CA000D26C9C3BFFF796FD0546371D3E682846D3
:102CB000314603F051FA0121C94303F0C3FA31460A
:102CC00003F0F8F938600146284603F045FA064655
:102CD000208944281ED0002100291DD03046FFF74E
:102CE0000DFCFFF710FC304603F008FD3B4A384B63
:102CF000FC3AD26C4833FFF74DFCA078401CC0B2C0
:102D0000A07002280AD30020A07028460199FFF77E
:102D10001FFD03E00121DFE7401C2081FFF747FD95
:102D2000FEBD70B505462F48C078192807D0322857
:102D300004D1FFF717FE2846FFF774FF70BD00248B
:102D4000FFF710FE2846FFF76DFF641CE4B2022C6B
:102D5000F6D370BD70B504460D462946204603F0F3
:102D600037FD01D2204670BD284670BD70B50446BF
:102D70000D462946204603F021FD01D2204670BDB4
:102D8000284670BD884200DC0846904200DB1046B1
:102D9000704710B51648134C0068E178C088484366
:102DA0007D21C90003F0BEF8608110BD10B50C484C
:102DB0000C4C0068E178808848437D21C90003F00D
:102DC000B1F8A08110BD00000000C8419A99593F98
:102DD000942400203333733FB0BD0008AC210020A1
:102DE000F0BC0008C0020020000070420000C84291
:102DF000F4BC000800207047002070470020704796
:102E00000020704770B50546FEF754FF284603F0D2
:102E1000B6FB4C4C60602846FFF7EBFD0020A0603D
:102E2000E0602070A070607070BD70B505462846E7
:102E300003F0A5FB434C60602846FFF7DAFD002055
:102E4000A060E0602070A070607070BD00207047CE
:102E500010B501F023FA3B4C41060AD5A0780128B1
:102E600006D10220A070FFF7ABFEFEF777FF60707F
:102E700010BD800602D50120A07010BD0020A070FA
:102E800010BD70B504460D46FFF7E2FF2D4880786F
:102E9000002803D1FFF7D0F9002802D1601BFFF70B
:102EA00040FF002070BD10B5FFF7C6F9002807D01D
:102EB00024498878012805D0022808D0002010BDB8
:102EC000002010BDFFF77CFEFEF748FF10BD4878DC
:102ED00010BD10B51B488078002807D0FFF784FE8E
:102EE0004000FF21FF2802DB084600E00020C0B2BE
:102EF00010BD10B513488078002802D0FFF788FE77
:102F000000E0002040B210BD10B50E4880780028C7
:102F100002D0FFF77DFE00E0002040B210BD10B5EA
:102F2000FFF7F2FF0A2801DD012010BD002010BDCF
:102F300010B501F0C7F910BDFAE710B501F0B8F906
:102F400010BD00000803002010B5FF223F21D2056C
:102F50000906D04204D203F0ADF803F049FB10BDDE
:102F600003F0FAF803F044FB10BD70B5FC4D0024EB
:102F70002C6103F004FB01F0CCFA002846D01421A8
:102F8000F84803F07FF8F74844618461C461046243
:102F900044628462C4620463AC64EC642C706C7040
:102FA000AC706C61AC610120E8702C812C62EC612A
:102FB0006C81AC62EC802C716C716C6200212964B4
:102FC0006964E8481421343003F05CF8EC622C6347
:102FD0006C63AC63AC81EC81E2485021483003F073
:102FE00051F8E049284614224831503002F0A2FD41
:102FF000DC486821983003F045F8DA4928461A225F
:103000009831583002F096FD002070BD012070BD4F
:1030100030B5D448243042680168C46883688D188C
:10302000181928188010814212DD824210DA83427A
:103030000EDD84420CDA994201DDC81A00E0581A0C
:10304000891AC000814201DD012030BD002030BD61
:10305000814212DA824210DD83420EDA84420CDDB4
:10306000A24201DD101B00E0A01A511AC0008142EB
:1030700001DD022030BD002030BD002030BDF0B5A4
:1030800089B00446B848844202DD002009B0F0BD92
:103090001422B64902A802F0DCFFB549204603F02D
:1030A00061F87F25ED05294603F004F8014628461E
:1030B00003F08AF805462946284603F053F808909D
:1030C0002846089903F04EF807902846079903F020
:1030D00049F806463146284603F044F80746BF2122
:1030E0000906204603F03EF8214603F03BF808F0BD
:1030F00047FBA04903F036F804463946069803F02A
:1031000031F801903146059803F02CF800900799AA
:10311000049803F027F806460899039803F022F86C
:1031200007462946029803F01DF8394603F014F8C3
:10313000314602F0BFFF009903F00EF8019902F04A
:10314000B9FF214603F00EF8A0E7F0B587B0854E31
:10315000834C24363546103D20780227A968069115
:10316000032830D004287DD16078401E810020469D
:103170004830405803F0FAF904907F48049903F06E
:1031800023F80390069803F0F1F9039902F092FFF7
:1031900002907A49049802F08DFF0146764803F0C8
:1031A00013F8039902F0DBFF0190E86803F0DEF901
:1031B000029903F00DFB6DD2E86803F0D7F902998C
:1031C00002F0CAFF6CE0674914314868059009684D
:1031D000401A03F0CBF90146674802F0F5FF0546B7
:1031E0002946654802F0F0FF0490059803F0BEF907
:1031F000049902F05FFF03906049284602F05AFFED
:1032000001465D4802F0E0FF049902F0A8FF5C4926
:10321000884200DB08460290524D0698143503F0B0
:10322000A5F9039903F0D4FA06D2A86803F09EF931
:10323000039902F091FF05E0A86803F097F903995C
:1032400002F08DFF029902F0BFFFFFF718FF4D4912
:10325000884215DD6968A868401A03F087F90146BD
:10326000454800E00AE002F0AFFF03F0C1F96178E1
:103270004A1C62708A003A494831885007B0F0BD54
:1032800070683060B068706068682860A8686860BE
:103290002770F3E7E86803F069F9029902F05FFF2D
:1032A000019902F091FFFFF7EAFE3649884275DD89
:1032B000A968E868401A03F059F901462E4802F05F
:1032C00083FF03F095F961784A1C62708A002449F3
:1032D00048318850FFF79CFE002802D1617802290E
:1032E00011D000282CD0012850D00228C6D17068F7
:1032F0003060F068706068682860E868686027700F
:1033000000206070BAE70020E07029686868401A01
:1033100003F02CF90146184802F056FF03F068F953
:103320000F4948310A6849685118401803F053F9A9
:103330000022154B03F0ABF803F0C7F920819DE79D
:1033400070683060B0687060F068B060686828606D
:10335000A8686860E868A860032020708EE71DE018
:1033600018030020EC25002000001442C0BE000815
:103370008F336D3E2A42CC3E0080BB44000020418A
:103380000000A041CDCCCC3C00000840B06870608B
:10339000A86868602770002060706FE7E86803F035
:1033A000E5F8029903F00AFA02D20320207065E7DB
:1033B000B0683060F0687060A8682860E86868608D
:1033C00027700020607059E770B5C54D00266E81EA
:1033D000AE620022C34C216801208300E3588B4277
:1033E00001DB02B21946401C80B20528F5D3002A41
:1033F00005D1A878022802D00120A87070BD042A47
:1034000002D0002A03D008E00220A87070BD286A0C
:10341000814202DA0022D2430146AE706A81A9627B
:10342000002070BDFEB5B048B049806D02F09AFE34
:103430000646AB4FAB4B39467A7934334D6C0C6C46
:10344000486A052A1BD2511CC9B2797192000291B7
:103450009E50314602F02EFE7862304603F04EF95F
:1034600002460B4602F0A1FF22462B4602F0F6FE72
:10347000796438640299052937D29D48FEBD99497F
:1034800034310968019102F067FE7862009001987A
:1034900003F034F902460B4602F087FF22462B4622
:1034A00002F080FF796404460D46386400208D4B9D
:1034B0003433411C8A009A5880001A50C8B204283C
:1034C000F7D380001E503146009802F0F3FD786279
:1034D000304603F013F902460B4602F066FF22461F
:1034E0002B4602F0BBFE79643864824D786A294627
:1034F00002F06AFE0446796C386C03F043F9294601
:1035000002F062FE05462146204602F02BFE2946C7
:1035100002F025FEFEBDFFB581B01746704D29694A
:10352000491C2961032973D3E978002970D0044626
:10353000FFF778FF064670487049006888420EDD44
:103540006948816D7F20C00502F006FE03F0D6F8C1
:103550004900490800226A4B03F0FCF802D3634893
:10356000864201DD012000E000200026002803D073
:1035700001202871E88009E02879002806D0E88831
:10358000401C80B2E880082800D92E710021686BA9
:1035900087420CD10498AA6B904208D10C22AA5EF3
:1035A0000A98904203D1EA890B98904200D00121F9
:1035B0006F630498A8630A98A8810B98E881286B28
:1035C000201A504A904204DC4342934201DC002915
:1035D00002D0E96A0818E862E96A671A2C636C6924
:1035E000641C6C61012C14D0384602F0BFFF014608
:1035F0003B48FF23F53322461C3001F0FEF8E86912
:1036000002F0F6FF381AA969364C052906D008E001
:1036100061E0384602F0AAFFE861F0E7216929621B
:10362000AE6102F0A3FF2E4950310A88531C0B8073
:103630004B689200985008884A88904200D30E80C8
:1036400027483149503001F001F8FFF77DFC02F0C6
:103650008DFF234958310A88531C0B804B68920018
:10366000985008884A88904200D30E801C48274909
:10367000583000F0EBFFFFF767FCA9698A00A05003
:10368000FF206A69F530824201D9EE702E81491C13
:10369000A96105291FD1FFF797FE2979002900D0DC
:1036A0000320A96A002900DA0320002813D1287812
:1036B0000C4B8200243399500A22AA5E29698A1889
:1036C000411C521FC9B280002970103B1A500229B8
:1036D00001D9FFF73AFD05B0F0BD014800897047F8
:1036E00018030020EC250020641600200000C842CA
:1036F000000080BF0000A040440100206F12833A08
:103700000000D03F00E1F50570BE000828BF0008AA
:10371000F0B506468FB0084614461D46642102F0F7
:1037200017FC02F023FF07466421204602F010FC3C
:1037300002F01CFF0124012D00D10024014602F0FB
:1037400011FD0546FE49384602F00CFD294602F0FF
:103750003BFD0B900B98014602F004FD0A903046A9
:1037600002F004FF05460D90F6490A9802F0FAFCB3
:10377000294602F0F7FC02F0C1FF089009912046AB
:1037800002F0FDFE04460C90EF490A9802F0EAFCB4
:10379000214602F0E7FC02F0B1FF06460F46EB4976
:1037A0000D9C0B9802F0DEFC214602F0DBFC02F0DF
:1037B000A5FF04460C980D460590E5490B9802F0CC
:1037C000D1FC059902F0CEFC02F098FF079106901B
:1037D000E0490A9802F0C6FC02F090FF05910490BF
:1037E000DD490B9802F0BEFC02F088FF03910290C5
:1037F000DA490C9802F0B6FC02F080FF01910090CB
:10380000D7490D9802F0AEFC02F078FFD54AD64BAE
:1038100002F024FD019B009A02F020FD039B029A16
:1038200002F01CFD059B049A02F0B9FD079B069A65
:1038300002F014FD22462B4602F0B1FD32463B4613
:1038400002F0ADFD099B089A02F008FD02F09AFF14
:10385000FF21C905C84200D300200FB0F0BDF8B564
:10386000044661692069401A02F080FE0646606ADB
:1038700002F07CFE08F008F80546206A02F076FEA9
:1038800008F002F8294602F067FC314602F09CFC81
:103890002546803506466860606902F067FE01468D
:1038A00001223046D207504002F05CFC07F068FF6E
:1038B000666A0746304602F059FE394602F052FC6D
:1038C000E067276960693246C11B206A0646101A04
:1038D00002F03EFB02F04AFEA0670446384602F0C2
:1038E00045FE214602F03EFC0446304602F03EFE14
:1038F000214602F031FC2860F8BDFFB585B00E9E70
:1039000004460F4615462146883120461422D830F9
:10391000049102F00FF92760642200232846E9177A
:10392000FDF754FE6060089864220023C117FDF77C
:103930004DFEA06026730F9820610125012E00D155
:1039400000255021049802F09DFB129800284BD0CE
:1039500012986061A2688549606852434843D31752
:10396000C117FDF733FE0646A06140430190119850
:10397000002844D01198E061E0696421081A7C496C
:1039800048437C4902F0E4FA0646656887202946E8
:10399000400102F0DDFA301820621099002970D041
:1039A0004B211098C9004843EB17C1172A46FDF771
:1039B0000DFE60622046FFF752FF0020A062E06229
:1039C00000222263626322676267A06322646264EA
:1039D000A064226562656849A16522666266A06688
:1039E0006034207309B0F0BDF800C01BC1170A2273
:1039F0000023FDF7EBFDD021081A6061AAE73046ED
:103A0000BE214843062102F0A3FA0A214F43F90FD1
:103A1000C9194910FF396E22C3396A4389184718FA
:103A200001980A2148432621039002F091FA3F1A97
:103A30001420684370430B2102F08AFA22683F1871
:103A400056430A2070433221029202F081FA3E1A54
:103A500001980A2168434843C82102F079FA351ACF
:103A6000029A039849215043890102F071FA2818FB
:103A7000E061C1170A220023FDF7A8FDE0617BE7A2
:103A8000FFE7616948434101081A216902F060FAC1
:103A90006062C11707220023FDF798FD606289E785
:103AA000704770477047F7B582B00C4633490498A9
:103AB00002F08AFB014602F055FB01903049049860
:103AC00002F082FB05462F4902F04CFB294602F02A
:103AD00049FB294602F046FB294602F043FB2946F2
:103AE00002F040FB294602F03DFB294602F03AFB7A
:103AF000294602F037FB7F27FF05394602F0DAFA44
:103B000006463946019802F0D5FA05461E49019845
:103B100002F028FB394602F0CDFA294602F054FBA8
:103B200005463846049902F017FB0146174802F093
:103B300019FB0146164802F0BDFA0746394629E04E
:103B400000401C4672335C390AD7A33B0AD7A33C1A
:103B50001058393EF4FDD43C0C024B4025062B4155
:103B60009CC4003F5839B4C8767E46C01027000078
:103B700074040000590200008FC2D53FC802C43C43
:103B800099A7673F86E18F408E2C6C3F0000E14390
:103B900000004842C54802F017FB294602F0E2FA4D
:103BA00005463946C24802F00FFB314602F0DAFA08
:103BB000294602F07FFA05463946BE4802F004FB6A
:103BC000314602F0CFFA294602F0FEFA06460121FC
:103BD0002046C9074840294602F0C4FA07F0D0FD44
:103BE00004463146029802F0B7FA214602F0BAFACA
:103BF000314602F05FFA05B0F0BDF8B505460C4657
:103C0000A86D00902E696F69AB49009802F0AAFA7E
:103C100002F01BFD69652865B44200DAF4B2BC42CB
:103C200000DD2746B81B02F0A1FC0746A01B02F0EE
:103C30009DFC394602F0C8FA02467F21C90500986A
:103C4000FFF731FFA865F8BDF8B50446A162E2624E
:103C50002069814202DA0021E162A0626169A06A02
:103C6000884203DD60612046FFF7F9FDA06A02F09B
:103C70007DFC0646A16F02F075FA2546803529685D
:103C800002F018FA02F0E1FC61672067E26A002A9C
:103C900006DC8A4A12681278002A03D0FF2A01D073
:103CA000012200E00022002A0AD13046696802F0B1
:103CB00059FA07F065FDE16F02F054FA02F0C5FC15
:103CC0006163206306460D466421606806F04AFF82
:103CD00002460B463046294602F07FF9784A002317
:103CE000FDF774FCA16C0818A064206A616A236F58
:103CF0000D1AEE17C217616F181A91416422002342
:103D000002F06BF92A463346FDF760FCA06302F02F
:103D10002DFC07466B4902F025FA674D294602F053
:103D200053FA06463846294602F04EFA7F21C90565
:103D300002F015FA644902F015FA0546304607F01C
:103D40001FFD624902F00EFA0646616C206C02F01B
:103D50001BFC0746284607F013FD5D4902F002FAF6
:103D6000394602F0FFF95B4D294602F02DFA014673
:103D7000304602F0F1F9584902F026FA294602F0DD
:103D8000F1F902F035FC226CC117636C80185941BF
:103D900061642064208DC1B22046FFF72EFF5223BC
:103DA000DB43206DDA11616DC0185141642200239C
:103DB00002F013F9494A0023FDF708FCC1176166B8
:103DC0002066A06A0A214843C1172B220023FDF771
:103DD000FDFBA066F8BDF0B585B005460C46012296
:103DE0000023616E206EFDF7F1FB69460870208D9F
:103DF0004870A06E8870002688200059384940001D
:103E0000400888420BDA616B206B02F0BDFBB10009
:103E1000091980318860761CF6B2142EF3D3616BD9
:103E2000206B02F0B1FB01462046D830064601F077
:103E30008FFE2C49304600F009FC02F006FC666853
:103E40000246F7170B463046394602F0C6F84B22B9
:103E5000D2000023FDF7BAFB694688800A220023BE
:103E6000616C206C02F0B9F81F4A0023FDF7AEFB2D
:103E70006946C88064220023616D206D02F0ADF8B0
:103E800064220023FDF7A2FB69460881A06C64222E
:103E9000C1170023FDF79AFB69464881A08D08737E
:103EA0000E22284602F0D5F8A5E6000080FB1E3F52
:103EB000E9DCE039BC1B923F0000C842F0BC0008BE
:103EC00080FC0A000C5D9840AC51E0408F5E0E3ED5
:103ED0009B718F3A00401C4600007042710900003F
:103EE00095BFD633D4BE00081027000010B5044695
:103EF00008466100090E09D00146204602F02FF95C
:103F0000F54902F02FF9214602F0D4F810BD70B542
:103F100004460D461046AC420BDD7F21C90502F078
:103F2000C9F80646601B02F021FB314602F04CF94D
:103F300070BD002070BDF0B505ACF0CC002805D0F8
:103F4000012806D00D6009981080F0BD0B60168026
:103F5000F0BD0C601780F0BDFFB589B016461F4656
:103F6000002007900690149A13981299DB4D049242
:103F70000197009602910390286806AA407807A945
:103F8000099BFFF7D8FF2868408C02F0F8FA044636
:103F90006946088B02F0F3FA214602F015F9024651
:103FA0000A990798FFF7B3FFCD4C20610A9802F0F9
:103FB000DDFA01460890E068FFF798FFE060129A8A
:103FC000139914980197009602920391049028681F
:103FD00006AA807807A9099BFFF7ADFFC1480068D2
:103FE000807A0A282DD06846018BBF4A079800F0D6
:103FF000A7F902F0BBFA2968BB4B0A8C2833617819
:1040000000F0B3FC06462968B74B0A8C08981C33AD
:10401000617800F0AAFC02F0EBFAB449884200DBB8
:10402000084602F0A3FA314602F099F802F0E0FAED
:104030000021002800DC084602F098FA60610DB00B
:10404000F0BD0A200090A84A6846018B03230C3279
:10405000079800F0A6F9CCE710B5A0480068C06842
:1040600002F08DFA9E49C96802F0B2FB01D8012026
:1040700010BD002010BD70B5984D994C286800699E
:1040800002F07DFA216902F099FB09D228684069A3
:1040900002F075FA216902F09BFB01D2012070BD8C
:1040A000002070BD70B58D4D8D4E2868806902F07E
:1040B00066FA716902F082FB01D2012400E000245B
:1040C0002868C06902F05BFA716902F081FB01D2D5
:1040D000012100E000212046084070BD70B5082392
:1040E0007E4A7F4C1268D278002A3AD022460025B8
:1040F000127800291DD0110700D51023D1060AD54A
:10410000A188491C89B2A180E38899420DD86178C1
:1041100000290AD010231146202631404026324083
:10412000114323D02023A58020E0012161702023AA
:10413000F1E711460826314010261640314300D0E1
:10414000A580910600D5402351060FD5A188491CB2
:1041500089B2A1802289914201D9082306E0402337
:1041600004E0002901D0202300E008231843207038
:1041700070BD5A4A116820310979002903D00229FB
:1041800007D000207047116809780029FAD1012072
:1041900070470120704770B5514C082020700026F0
:1041A0006670A6704F480068057A322D22D008202C
:1041B000E070A68049487D210068C900008901F0AF
:1041C000B1FE68432081E580E660474800F0A7F82B
:1041D00045480C3000F0A8F83F4D434829462830A8
:1041E00000F0BEFB404829461C3000F0B9FB2661B8
:1041F000666170BD1020DBE7FFB583B08E46944644
:104200000E9A0D99364C0225A0780426401CC0B2A7
:10421000A070E778B84223D10020A0700C986C46BB
:1042200007C4624671460398FFF796FEFFF714FF36
:104230000446FFF720FF0746FFF734FF02462146FA
:10424000394011400020002C00D00120002F00D068
:104250002843002A00D03043FFF740FF07B0F0BDED
:1042600000202178CA0700D001208A0700D5284302
:104270004A0700D530438A0601D4C90601D5012179
:1042800000E00021FFF72AFFE8E71548C068704703
:104290001348006970471248406970470F4800682A
:1042A0000078002802D00E48007870472020704720
:1042B0000B480078810601D4C00601D5012000E03A
:1042C000002056E706480078810601D4400601D553
:1042D000012000E000204CE7CDCCCC3DF4BC000830
:1042E00078030020F0BC0008EC26002088130000B2
:1042F00003460120994202DC934200DC0020704713
:1043000010B50446052200212046FFF7F1FF0128E1
:1043100003D1632C01D09C4810BD002010BD0021AA
:1043200001604160816070470021016041608160EF
:10433000C16070470021016041608160C1607047C9
:1043400070B5144600292BD0A2888A4206D0002AD4
:1043500004D02368A268C31AD218A2602060A1808A
:10436000A168451A89488A4E85420ADD084602F04E
:1043700021F90022334601F071FF02F087F9A060B5
:104380000DE082484042854209DA084602F012F9FF
:104390000022334602F003F802F078F9A0602846C4
:1043A00070BDF8B5069E144600293FD0A2880025AE
:1043B0008A4204D0002A02D001222273E581227BA6
:1043C000002A11D02268821A01D4174600E0574211
:1043D000B74202DDA668B218A260E289521C92B20E
:1043E000E2819A4200D925732060A180A168451A14
:1043F0006648674E85420ADD084602F0DBF8002277
:10440000334601F02BFF02F041F9A0600DE05F4858
:104410004042854209DA084602F0CCF800223346D1
:1044200001F0BDFF02F032F9A0602846F8BD70B57A
:104430001C4600292ED0A3688B4203D10C23E35ED7
:10444000934204D025686368451B5B196360206054
:10445000A160A2816168451A4C484D4E85420ADD33
:10446000084602F0A7F80022334601F0F7FE02F0FA
:104470000DF960600DE045484042854209DA084682
:1044800002F098F80022334601F089FF02F0FEF8AE
:104490006060284670BDF8B50E461746002E37D02E
:1044A00002F088F800223B4B01F079FF04460D46EC
:1044B000394A3A4B2046294601F077FF04460D461B
:1044C000304602F077F80022354B01F0C7FE024675
:1044D0000B462046294601F0DAFF04460D463846D1
:1044E00002F068F800222F4B01F0D1FF2E4A2F4B2B
:1044F00001F05BFF22462B4601F054FF04460D46B7
:1045000000222B4B2046294601F04FFF02F0BEF857
:10451000F8BD70B505462749284601F020FE400049
:10452000254C4008A04207DB2449284601F017FE2D
:1045300040004008A04201DA012070BD002070BD9B
:10454000042805D0062803D0082801D00020704791
:1045500001207047002906D08A4206D8994204D823
:104560000180002070470020704701207047022919
:1045700000D11146002904D0012902D00270012087
:1045800070470170002070470E6B000000C2EB0BFB
:1045900084D797410000E0402B7209394F72903F59
:1045A0000000F03F00002440B2B8FFC874E8E93FC3
:1045B00080842E410000C84195BFD6330000484298
:1045C0001F48204900680078B02813D006DC502826
:1045D0000DD060280ED0A12806D111E0B1280FD04F
:1045E000B3280AD0FF2805D00020087070470120AA
:1045F00008707047022008707047032008707047E9
:10460000042008707047704710B50D480068C068F6
:1046100001F0ACFF04460C48016D806801F04AFDD2
:1046200009498031896901F045FD214602F0D0F841
:1046300001D2012010BD002010BD02480078704753
:10464000F0BC000890030020E4150020F3B583B00F
:104650000646002500247088029031880191401A96
:10466000C7B20FE0019871680019800009580498DA
:10467000A200805801F076FD294601F01BFD054699
:10468000641CA4B2BC42EDD33C460EE0E11B706852
:10469000890041580498A200805801F063FD294622
:1046A00001F008FD0546641CA4B20298A042EDD8B2
:1046B000284605B0F0BDFEB50C4615461E4661689D
:1046C000A160216861606968A9602968696007461E
:1046D000206008986968406801F044FD00900898DF
:1046E000A968806801F03EFD009901F0E3FC0190AB
:1046F0003946306801F036FD00906168706801F05D
:1047000031FD0746A168B06801F02CFD394601F083
:10471000D1FC009901F0CEFC019901F01DFD28604B
:10472000FEBDFFB581B00F4615461E467F21C90567
:10473000304601F0BFFC0021C94301F083FD04466F
:104740003946204601F00EFD07462146019801F04A
:1047500009FD04462946304601F004FD214601F0DA
:10476000A9FC394601F0F8FCA3E7F7B5029882B23C
:10477000009803C801F00FFA044600980227C75FAB
:104780000026002514E00098A1004068AA004058C7
:104790000199895801F0E6FC314601F08BFC064690
:1047A000641CA4B2BC4201DBE01B84B26D1CADB240
:1047B00002988542E7D33046FEBD31221F49D4E737
:1047C00010B51E492922C431FFF7CFFF1C4901F063
:1047D000FBFC10BD17221B49C7E71A490D225C31AB
:1047E000C3E718490B229031BFE716490722BC31B5
:1047F000BBE714490322D831B7E7F8B504460D46A4
:104800001046984201D9184602E0002800D1012044
:1048100001F0B5FE01467F20C00501F0D5FC06463B
:1048200027682846394601F097FC314601F09AFC8A
:10483000394601F03FFC2060F8BD000090BF000841
:104840000000A041F8C0000863494B680A68896805
:10485000436002608160704770B505464868086033
:104860008C684C608D600146204601F075FC064660
:104870002946204601F070FC0121C9058E4203DB68
:10488000884201DB012000E00020002801D0204602
:1048900070BD002070BD30B5C1B00546FF240134A5
:1048A000214601A801F0EEFB4B4922460C3101A83C
:1048B00001F0CFFB224601A9284601F0CAFB41B016
:1048C00030BDF8B505460C46204680300646C16F1F
:1048D000284601F041FCF567400021464008F031D0
:1048E000FFF7BAFF0121C94301F0ACFC07460025E0
:1048F00078003A494008884213DBAE00A159384697
:1049000001F066FF03D33019806F7D2805D9A80018
:10491000275000203119886703E06D1CADB21E2DB1
:10492000EBD3002081000A19916F7D2901D8491C21
:104930009167401C80B21E28F4D300270025AE00EA
:10494000A059394601F044FF04D23019806F7D2808
:1049500000D8A7596D1CADB21E2DF0D33846F8BD56
:1049600000220260426081607047FFB581B0154649
:104970001C46002902D00020194901E000201949F5
:1049800001F000FF07466168019801F0E5FB460071
:1049900076083946206801F0E5FB01F029FE8542E2
:1049A00000DD284601F0E2FD05462946304601F0CB
:1049B00005FF00D32E4630460199616025682946DF
:1049C00001F0CAFBA16801F0CDFB294601F072FBA2
:1049D000206005B0F0BD00002027002095BFD63331
:1049E0000000F83F00001440F8B50D460699044653
:1049F00016461F46FE4801F0E7FBFE4901F0B2FBF8
:104A00002060A6606760FC48E060FC482061FC48CC
:104A10006061FC48A061E561F8BDF3B583B0044670
:104A20006069F44E01460290304601F095FBF6496C
:104A300001F098FB0546A069F449019001F092FB52
:104A40000746F349384601F08DFB009001212846C6
:104A500001F0F8FB05460498F1074840314601F0A3
:104A60007BFB294601F026FB009901F023FB06465B
:104A70002846394601F070FB0546FF21C905CD42A5
:104A800004D3E449284601F06DFB0546276831460A
:104A9000384601F067FB029901F00CFB6061294682
:104AA000384601F05FFB019901F004FB0546A06167
:104AB000E6682069314601F04FFB0746D349284696
:104AC00001F050FB314601F047FB394601F07CFB19
:104AD0000546A6686068314601F03EFB294601F0B4
:104AE00041FB314601F0E6FA05462846E16901F04E
:104AF00033FBE56105B0F0BD70B504460E463146A6
:104B00002046FFF78AFF656A3046294601F024FBFC
:104B1000216A01F027FB294601F0CCFA6062E569C1
:104B2000A16A284601F018FBA56270BDF3B585B0F7
:104B30000F46B94E0598B1680C4601F00DFBB74918
:104B400001F010FB214601F0B5FAB060B4490968E4
:104B50000C7831788C4202D1F5686D1C00E000259C
:104B6000F56034700146059801F0F9FA4000A1495A
:104B70004008884201DA012200E00022A94885426B
:104B800001D9012000E00020A7498F4201DD012169
:104B900000E0002102400A40002A55D0A34D2868B9
:104BA000296840780F78C01B01F0E0FC009038467F
:104BB00001F0E5FC07469E49059801F0D3FA394615
:104BC00001F0CAFA009901F0FFFA716801F0C4FA25
:104BD0000321890701F0C6FA06462968200140181A
:104BE000011D0EC9006901AD0EC50490914F002C46
:104BF0002CD0042C3AD0012C38D0012001F0BFFC7D
:104C000005468D48C16D304601F0ACFA8B4901F084
:104C1000A9FA294601F0A6FA019901F0A0FA01903B
:104C200000F078FF314601F09DFA394601F09AFA1A
:104C3000294601F097FA029901F091FA0290009446
:104C400001A80FC8FCF75FFD07B0F0BD002539468D
:104C5000304601F087FA06463046049901F07FFAA3
:104C600004906D1CEDB2052DF6D3E8E70A20C5E7E8
:104C70006B4800680078042801D0714870477F2095
:104C8000C005704700210160416081606D4AC260CB
:104C90006D4A026181617047F8B5044600202060CA
:104CA00060606A49A160E060216160617F25ED0577
:104CB000284600F02FFA00F02DFA0121C94301F037
:104CC000C1FA564E314601F04DFAA061284600F077
:104CD00021FA0027FF43394601F0B4FA314601F0CA
:104CE00041FAE061284600F015FA394601F0AAFAC7
:104CF000314601F037FA2062284600F00BFA3146BF
:104D000001F030FA6062F8BDFFB581B00A9904463F
:104D100015461E46606801F0CDF907462060294619
:104D2000E06801F0C7F90546A0603146284601F069
:104D3000C1F90146284601F047FA0646A061394606
:104D4000029801F009FA314601F00CFA394601F0F7
:104D5000B1F9074660607F203146C00501F0FCF9DB
:104D6000294601F0FFF9E0603846C3E6FFB597B089
:104D7000044620981E4600210E910D910C90656806
:104D80002068294601F096F90B907F20C00500F0BD
:104D9000C1F96169169101F0E5F90746206915909E
:104DA000E0681490159901F085F9A16801F082F985
:104DB000394601F07FF9A16901F07CF90A90169952
:104DC000149801F077F9E16901F074F909901699E6
:104DD000159801F06FF9216A01F06CF90890616A89
:104DE000169801F067F907900D99089830E00000D7
:104DF00000004842CDCCCC3D0E74DA3BCA2F963D24
:104E000023532E3FBD9DA14196438B3CDA03AD3920
:104E1000000060419A99193F940300206F12833A71
:104E200024BF0008EE020000CDCCCC3EF8BC000848
:104E300000007042ACC5273764160020BD378635A8
:104E4000000040408988883C0E74DA3A0000204116
:104E500001F030F9139007460E99099801F02AF9EC
:104E60003946129001F07EF907460C99079801F037
:104E700021F91190019031460A9801F01BF9109028
:104E8000019901F06FF9394601F066F901467F207A
:104E9000C00501F099F906900999139801F062F99B
:104EA00006460A99119801F05DF9314601F054F96E
:104EB000069901F057F905900A99129801F052F9F4
:104EC00006460999109801F04DF9314601F044F970
:104ED000069901F047F904900799139801F042F9F7
:104EE00006460899119801F03DF9314601F034F970
:104EF000069901F037F906460899129801F032F93F
:104F000007460799109801F02DF9394601F024F968
:104F1000069901F027F907460B99189801F01CF93A
:104F200003902946199801F017F902900299049804
:104F300001F018F901900399059801F013F90B9904
:104F400001F0B8F8019901F0B5F820600F903846EB
:104F5000029901F007F901903046039901F002F936
:104F6000294601F0A7F8019901F0A4F860600499BE
:104F7000089801F0F7F805467F20C005059901F073
:104F8000EBF80A9901F0EEF8294601F0E5F8A06087
:104F90000499079801F0E6F805467F20C0050599B9
:104FA00001F0DAF8099901F0DDF8294601F0D4F8AA
:104FB000E06031460A9801F0D5F801907F2039462B
:104FC000C00501F0C9F80546089901F0CBF8019930
:104FD00001F0C2F820613146099801F0C3F8064695
:104FE0002846079901F0BEF8314601F0B5F8606136
:104FF0000F981BB0F0BDF8B504462046FFF742FEFF
:105000004749002048608860C8600870454E306895
:10501000007801F0E0FA444F00223B4601F037FAF5
:1050200001F0B0FB05463068407801F0D4FA002268
:105030003B4601F02CFA01F0A5FB03463B480090EB
:1050400020462A4629461C30FFF7CEFC65642564BD
:105050003748E063F8BDF8B504460E4617463048B9
:10506000416820461C30FFF747FD05462D48006883
:105070004030007D002803D039463046FFF756FD0A
:10508000FFF7F6FD394601F06DF82A4901F09CF86A
:10509000294901F099F802460095314620462369D6
:1050A000FFF732FEF8BD1E4840687047F0B587B084
:1050B0002248076E00F02EFD069000F02FFD01F053
:1050C0005EFA01461E48174A00681268007800011F
:1050D0008018066985684468C2680596039502943D
:1050E0000492104601F03EF801902846069901F01E
:1050F00039F805463946204601F034F8294600F0D3
:10510000D9FF019900F0D6FF314600F0D3FF0449E2
:10511000486099E510B5014601F024F810BD000083
:1051200094030020F8BC000800004E400000C84175
:105130006F12033A00002041000070426416002004
:1051400024BF0008F8B50446084616460025256029
:105150006560A560E56025616561A561E561256221
:105160006562A5627F22D205E2626264FD49096838
:105170000978012945D0022943D0032941D0FA49B1
:1051800021637F21C9056163E363A664314601F0B1
:105190001BF8F64900F0E6FFF54900F0DDFFA063DB
:1051A000304601F025FA014620464030074601808E
:1051B000F049304600F0D6FF01F01AFA7880E56435
:1051C000206B06F0B6FAEC49096888472065256B24
:1051D0007F21C905284600F06DFFE84F394600F0F1
:1051E000F3FF60657F202946C00500F0B5FF394612
:1051F00000F0EAFFA065DD49304600F0E5FFE0651C
:10520000F8BDDF492163BCE7F0B591B00C462060E2
:10521000DC4B02AA1B6803A9A06B98476069109039
:10522000206B0F90109900F09DFF7F25ED050190F8
:1052300029460F9800F03EFF03990E9100F092FF6F
:1052400002460D9020690C9001460B90104600F02C
:1052500089FF0646216D029800F084FF67680A976F
:10526000394600F07FFF314600F076FF019900F0EB
:1052700073FF0646E060216A0F9800F073FF01900B
:10528000E1690D98099100F06DFF009001210E98E1
:1052900000F0D8FF3946089000F064FF21680791BC
:1052A00000F008FFA16800F005FF616D00F05AFFF3
:1052B000009900F051FF019900F04EFFA0610690A7
:1052C000A16A0F9800F04EFF0190616A0D98059158
:1052D00000F048FF07460B99089800F043FF31465D
:1052E00000F0E8FE109900F0E5FEA16D00F03AFF35
:1052F000394600F031FF019900F02EFF0746314694
:10530000304600F02FFF616C049100F025FF9E49AC
:1053100000F028FF049900F0CDFE60642146403182
:1053200000228A5E002A01DD521E0A8000228A5E67
:10533000002A42DC02228A5E002A01DD521E4A80D7
:1053400002228A5E002A0BDC294600F0B3FE8F4958
:1053500000F008FF0146284600F036FF60630AE0CF
:10536000294600F0A7FE8A4900F0FCFE01462846C7
:1053700000F02AFF6063E56A3846294600F0ECFE3B
:10538000814900F0EFFE294600F094FE0546E062F8
:105390002946304600F0E0FEE16B00F0E3FE2946CE
:1053A00000F088FE0146606B00F0DCFE069900F01C
:1053B000D9FEA16B00F0D3FEA0630A98A060079805
:1053C00060600C9860612661099820620698E0612F
:1053D0000598A06267626649A06B00F06BFE400012
:1053E0004008E16D00F0BEFEE06411B0F0BD70B5A4
:1053F00004460D46002020606060A060E0602061EF
:1054000060616448A061E061634820626062634853
:10541000A0626348E0622063FD208005606361480C
:10542000A0630121284600F00DFF01F0E1F8A087FC
:105430005D49284600F096FE01F0DAF8E087256421
:1054400070BDF0B585B007460C46A0680390A66A0B
:105450000146304600F086FE05467F21C9053046EC
:1054600000F028FEE66A314600F07CFE6168029199
:1054700000F078FE394600F072FE294600F06CFE1E
:10548000054620600121304600F0DCFE029900F064
:1054900069FE294600F00EFE039900F00BFEE06065
:1054A0003C20205E002801DD401EA0873C20205EBD
:1054B00000287DDC3E20205E002801DD401EE087C4
:1054C0003E20205E002803DC344860632648A06349
:1054D000666B7F203146C00500F03EFE0121019041
:1054E00000F0B0FE029900F03DFE029900F03AFE95
:1054F00007463046616A00F035FE394600F0DAFDB5
:10550000206200902846039900F0D4FD07460299D6
:10551000019800F027FE394600F024FE0746304689
:10552000E16900F01FFE394600F0C4FD0646A061A7
:105530007F21C905009800F0BDFD014601223046DB
:10554000D207504000F040FEE0627F21C90588424A
:1055500001DD0846E0621548E16A814200D9E06257
:10556000A76B26E024BF00083333733FDB0FC9402D
:10557000DB0FC93F0000E840C401002000004040AC
:105580009A99793FCC0100200AD7233C00606A44F5
:1055900000606A459A99993ECDCCCC3ECDCC6C3F0B
:1055A000DCF477BF6666663F0000A040000080BF65
:1055B00010E07F203946C00500F0CEFDE16A00F022
:1055C000D1FD06463846216B00F0CCFD314600F097
:1055D00071FDE062E06A20630299A1606560216A62
:1055E0006162A169E1610121C907484006F025F81F
:1055F0002B4900F0E9FD216C00F0B4FD05B0F0BDD1
:1056000010B50B4604461146002020606060A06083
:10561000E06020616061A361E161214800F0D4FD98
:10562000206210BDF7B582B008461446216A00F02A
:1056300099FD1C49096888470121C90705464D4065
:10564000A0680190A6690146304600F08BFD074630
:105650007F21C905304600F02DFD294600F082FD6E
:105660006668314600F07EFD029900F078FD39460B
:1056700000F072FD074620600121284600F0E2FD9F
:10568000314600F06FFD394600F014FD019900F03D
:1056900011FD0146E060A66067600846AEE70000C5
:1056A000DB0FC940C401002010B50446204650213C
:1056B000A03000F0E7FC20465021F03000F0E2FC82
:1056C0002046FF305021413000F0DCFC00217F22D9
:1056D000D2058800225000190265491CC9B214295C
:1056E000F7D3FF349E488134206100206061A061BF
:1056F0009C48E06110BD1422FF21A1310A54D3E778
:10570000142900D91421FF22A1321154CCE7F7B596
:1057100094B00446079200262546FF3581352F4672
:10572000203732E007990691801B401E8000001947
:1057300080301390016AE86900F014FD0590B00014
:105740001290205811900146059800F00BFD019031
:1057500012980019006D10900146069800F002FDA5
:10576000019900F0F9FC07901099059800F0FAFCF7
:1057700001901199069800F0F5FC019900F09AFC4F
:10578000014613980162761CF6B23878B042C9D847
:10579000079800F0DFF80646286900F0DBF8724948
:1057A00000F0E0FC314600F085FC7049096888474C
:1057B000064628613146079800F006FD014604962A
:1057C000686900F0CFFC0390002647E0B0000019A4
:1057D00080300F90006A00F0BDF80190049800F04E
:1057E000B9F8019900F066FC60490968884760498A
:1057F00008600E900E99049800F0E6FC5C49486041
:105800000D900F980E99006A00F0DEFC58498860F0
:105810000C900F98006F0690039805900C990598CE
:1058200000F0A0FC01900D99069800F09BFC0199F6
:1058300000F092FC01460F9801670D99059800F061
:1058400091FC01900C99069800F08CFC019900F0F5
:1058500031FC03900E980490761CF6B23878B04272
:10586000B4D838782146401E8200F431081F00F079
:10587000F0FB39780398491E8900091980310867BF
:105880007F20C005686100265BE0801B401E800011
:1058900000198030006F00F05DF80190686900F039
:1058A00059F8019900F058FC30490968884702907E
:1058B00038786969801B401E800000198030006FB5
:1058C00000F082FC0146B0000B90215069690298FB
:1058D00000F07AFC01460B98001901650A911598B1
:1058E00006903878801B401E80000019FF30013080
:1058F0000990016CE86900F035FC05900B98205880
:1059000008900146059800F02DFC01900A99069830
:1059100000F028FC019900F01FFC15900A990598E9
:1059200000F020FC01900899069800F01BFC0199FA
:1059300000F0C0FB01460998016402986861761C7A
:10594000F6B23878B042A0D86969159800F00AFC20
:1059500017B0F0BD10B5014600F004FC10BD00000A
:1059600000002041F45B7F3F52B87E3FC801002019
:10597000A403002010B55F480021016041605E482B
:10598000FFF780F910BDF0B585B006460025002070
:105990000290EC202F464743BC1920460C30FEF7FE
:1059A0000CFF2146FEF758FF410054484908814248
:1059B0002FDB012102A84155F059A268616800F06F
:1059C00075FA00908034E06D401C00F0D8FD00991D
:1059D00000F070FB0746A065009800F022FEE0652D
:1059E0003946474800F0F0FB074620663846616EAE
:1059F00000F0B2FB4000A16E4008039100F0ACFB48
:105A0000404900F0AFFB039900F054FBA0666766C5
:105A100003E08034E06D401CE0656D1CEDB2032DA9
:105A2000B7D30027304680300446006E06F060F899
:105A3000A16E00F097FB01900024EC2060438519D3
:105A40008035286E06F054F8A96E00F08BFB0546F1
:105A50002846019900F0B2FE01D227460195641C48
:105A6000E4B2032CE9D302A8C05D002837D0EC20B3
:105A70004743BC191F488034216E406800F06CFB1E
:105A800041004908019800F015FB0021C94300F0CE
:105A9000D9FB7F25ED05294600F061FB1A4F06462C
:105AA0003946304600F094FE01D2304600E03846D8
:105AB00006462946304600F081FE01D2304600E01D
:105AC0002846014600F04EFB0A4D28600020009059
:105AD00003460E4A0848216EFFF716F9686005482C
